:100000000C943A000C9457000C9457000C94570031
:100010000C949F030C945E020C9457000C945700B0
:100020000C9457000C9457000C9457000C94AD029C
:100030000C9457000C9457000C940B030C9457002D
:100040000C9457000C9457000C9441040C945700E6
:100050000C9457000C9457000C9457000C945700C4
:100060000C9457000C9457006364696E6F7073753D
:1000700078585B0011241FBECFEFD8E0DEBFCDBFA4
:1000800011E0A0E0B1E0EAE4FBE102C005900D92CE
:10009000A035B107D9F721E0A0E5B1E001C01D927C
:1000A000A937B207E1F70E9485040C94A30D0C94C4
:1000B000000080915C0190915D0120915C01309184
:1000C0005D0197FF03C031952195310940910001F1
:1000D0008AE0489FA001112481E04217530708F0ED
:1000E00080E008950F931F93CF93DF93CDB7DEB7D2
:1000F00028970FB6F894DEBF0FBECDBF6AE070E060
:100100000E940D079F938F937F936F938FE091E0F1
:100110009F938F931F9288E08F938E010F5F1F4FE5
:100120001F930F930E949007C8010E94A8010FB669
:10013000F894DEBF0FBECDBF28960FB6F894DEBF91
:100140000FBECDBFDF91CF911F910F9108950F93F7
:100150001F93CF93DF9300D000D0CDB7DEB71F92AF
:100160008F9381E091E09F938F931F9284E08F9310
:100170008E010F5F1F4F1F930F930E949007C801BE
:100180000E94A8010FB6F894DEBF0FBECDBF0F903E
:100190000F900F900F90DF91CF911F910F910895C5
:1001A0000F931F93CF93DF93CDB7DEB728970FB68A
:1001B000F894DEBF0FBECDBF8E010F5F1F4F97FFBC
:1001C00029C09195819591096AE070E00E9421070C
:1001D0009F938F937F936F9385E091E09F938F938D
:1001E0001F9288E08F931F930F930E9490070FB682
:1001F000F894DEBF0FBECDBFC8010E94A8012896AB
:100200000FB6F894DEBF0FBECDBFDF91CF911F9127
:100210000F9108956AE070E00E9421079F938F93E9
:100220007F936F938EE091E0D9CF20915E01309162
:100230005F0147E1429FC001439F900D112464E696
:1002400070E00E940D0783E2861B8093B30008953F
:1002500080E680937C0087E880937A0008959091EF
:100260007C00907F8F70982B90937C0080917A0017
:10027000806480937A0080917A0086FDFCCF809123
:10028000790008959BB19F70807F982B9BB9299A24
:10029000299A29980895CF93C82F28980E9442013F
:1002A0008C2F8295807F0E9442018FE39FE101970E
:1002B000F1F700C00000CF910895811104C080E8DB
:1002C000860F0C944B0180ECFBCF84B1836084B922
:1002D00022988AB1806F8AB98FE59AEE0197F1F77B
:1002E00000C0000080E30E9442018FE19EE401977C
:1002F000F1F700C0000080E30E9442018FED91E021
:100300000197F1F700C0000080E30E94420180E203
:100310000E9442018FE39FE10197F1F700C00000C6
:1003200088E20E944B018FE00C944B01CF93C82FC1
:10033000289A0E9442018C2F8295807F0E94420160
:100340008FE39FE10197F1F700C00000CF9108957E
:10035000CF93DF93EC018991811103C0DF91CF919D
:1003600008950E949601F7CF539A52985B98109285
:1003700080001092810010926F0010928500109200
:100380008400E8E6F0E080818B7F8083EDE6F0E09A
:1003900080818B7F808310926B0110926A01089597
:1003A000109257011092560110925501109254016B
:1003B0001092530110926A0181E080936B011092B8
:1003C0008000E1E8F0E01082109285001092840035
:1003D00080E69AEE909389008093880082E086BB45
:1003E00080936F00808384E08BBBEDE6F0E080813A
:1003F00084608083E8E6F0E08081846080835B989D
:100400008AE08A95F1F700C05B9A85E38A95F1F757
:1004100000005B98089510925F0110925E011092A7
:10042000550182E080936B0110928000E1E8F0E0DA
:100430001082109285001092840029E638E13093F2
:1004400089002093880086BB80936F008CE08083B6
:10045000089510926F001092810010926B01089520
:100460009C01A5E0B0E00E947607635E7F4F8F4F4E
:100470009F4F2AE330E040E050E00E943507C90179
:10048000089515BC16BC8093650110926601109208
:1004900069011092680181E080936701259A82E0EA
:1004A00084BD93E095BD80936E00809165018823A3
:1004B00019F08AEF87BD089582E3FCCF1F920F9257
:1004C0000FB60F9211242F933F938F939F93809198
:1004D0006B01813041F44A9B0FC01092850010924D
:1004E000840080936A019F918F913F912F910F908B
:1004F0000FBE0F901F90189590916A01992399F360
:1005000020918400309185002832310538F4109212
:100510006A011092850010928400E5CF209184003A
:1005200030918500309354012093530180935601FC
:1005300080935701809168008B7F80936800809141
:100540006D008B7F80936D0010926F001092810080
:1005500010926B0110926A01C6CF1F920F920FB6D4
:100560000F9211242F933F934F935F936F937F9339
:100570008F939F93AF93BF93EF93FF9380916B0102
:10058000813049F5109256018093570180935501AF
:10059000809168008B7F8093680080916D008B7FD5
:1005A00080936D0010926F001092810010926B0189
:1005B00010926A01FF91EF91BF91AF919F918F913E
:1005C0007F916F915F914F913F912F910F900FBE4F
:1005D0000F901F90189580916B01823059F7809190
:1005E0005E0190915F01019690935F0180935E019F
:1005F00080915E0190915F0185369105D8F284E685
:1006000090E090935F0180935E0181E080935501BB
:100610000E942902CFCF1F920F920FB60F92112482
:100620002F938F939F9380916701882329F185B140
:1006300090E2892785B980916801909169010196BE
:10064000909369018093680180916801909169019C
:10065000853F914088F01092690110926801809165
:1006600066018F5F8093660180916601833060F040
:100670001092670115BC2D989F918F912F910F902B
:100680000FBE0F901F90189580916501882369F027
:1006900080916601813011F488E705C08091660180
:1006A000823051F782E387BDE7CF809166018130C8
:1006B00099F3809166018230F9F68AEFF4CF97B111
:1006C0009E6097B9813029F4419888B18C6088B9CF
:1006D0000895823021F4429888B18A60F8CF439817
:1006E00088B18660F4CF87B18F7C87B988B1806389
:1006F00088B996B1892F807195FD1BC0811115C0F5
:1007000010926D0184E180936C018093000181E07F
:100710008093590180916800826080936800809185
:100720006C00806380936C00089581E080936D017C
:10073000E9CF811102C082E0F9CF83E0F7CF1F92A9
:100740000F920FB60F9211248F939F9386B1982F1B
:10075000907185FD14C081E0911101C080E09091FD
:100760006D01981779F190916D01911113C081304D
:1007700059F490916C019F5F90936C0113C083E0DA
:100780009111EDCF82E0EBCF823061F490916C015A
:100790009150F2CF90916D019130D9F48823B1F34B
:1007A000833039F390916C0194360CF193E6909379
:1007B0006C0190916C019093000191E0909359012C
:1007C00080936D019F918F910F900FBE0F901F909E
:1007D000189590916D01923029F48330B9F281110E
:1007E000E1CFC7CF823029F28130E1F6CFCF9091AF
:1007F0006C011916F4F291E0DACF87E690E090935D
:10080000C5008093C40088E98093C10086E080938E
:10081000C20008950F931F93CF93DF93CDB7DEB738
:100820002A970FB6F894DEBF0FBECDBF9F938F936C
:100830008BE491E09F938F931F928AE08F938E01B8
:100840000F5F1F4F1F930F930E949007F8010FB681
:10085000F894DEBF0FBECDBF819181110BC02A96E7
:100860000FB6F894DEBF0FBECDBFDF91CF911F91C1
:100870000F9108959091C00095FFFCCF8093C60022
:10088000EBCF1F920F920FB60F9211248F939F936D
:10089000EF93FF938091C600803481F481E08093D0
:1008A00071011092720110927001FF91EF919F916E
:1008B0008F910F900FBE0F901F901895909171011E
:1008C000992399F3843271F4E0917201EE2339F0A7
:1008D000F0E0ED58FE4F108281E08093700110929D
:1008E0007101E3CF90ED980F9A3010F08D32B9F787
:1008F000E0917201E53098F791E09E0F90937201BC
:10090000F0E0ED58FE4F8083D0CFCF93DF93CDB78B
:10091000DEB728970FB6F894DEBF0FBECDBF0E949A
:1009200065010E9428010E9473030E94B40190E0B7
:1009300080E00E94520D9FEF980F933608F023C17C
:1009400080930001239A83E88093B00087E080932E
:10095000B10089E18093B3000E94FD03249A2C9892
:10096000789481E00E944B018FE39FE10197F1F7BA
:1009700000C0000060E080E00E945D0187E191E03E
:100980000E94A80160E081E00E945D0183E291E0A5
:100990000E94A8019FEF23ED30E3915020403040AA
:1009A000E1F700C0000081E00E944B018FE39FE16E
:1009B0000197F1F700C0000080E00E945F039E01F4
:1009C0002F5F3F4F79018FE2C82E81E0D82E93E749
:1009D000A92E91E0B92E11E022E0422E33E0332E11
:1009E0004AE0642E712C53E4852E51E0952E68E088
:1009F000262E0E94150180917001882361F1FF92DB
:100A0000EF92DF92CF92BF92AF920E94C0074981CE
:100A10003A8140936E0130936F01109270011093F0
:100A2000500120910001842F932F97FF03C09195CF
:100A3000819591094AE0249F900111240F900F9015
:100A40000F900F900F900F90281739070CF09DC052
:100A500081E00E94410280E00E942F0101E0843188
:100A600028F0875800E0873208F402E080915901AD
:100A70008823E1F0109259016091000190E080E03C
:100A80000E945A0D80915201882381F08091640167
:100A900081110CC080915101811108C00E94590040
:100AA000882309F474C081E00E945F03809164018F
:100AB00081116FC0023061F58FEF92E527E0815020
:100AC00090402040E1F700C00000109258011092C1
:100AD0005B0110925A011092630110926201109210
:100AE00061011092600110925F0110925E011092FC
:100AF0005D0110925C01109252011092550110920A
:100B0000510180E00E945F030E94D00110936401B4
:100B100080915801813009F020C180915A018111E2
:100B200068CF81E00E944B018FE39FE10197F1F7CD
:100B300000C0000060E080E00E945D0182E391E07F
:100B40000E94A80160E081E00E945D0180910001A7
:100B50000E94A70080E20E949601809100010E94FD
:100B6000A7006AE081E00E945D0180915001882326
:100B700009F4EEC080916E0190916F010E94D00047
:100B800010935A0136CF84E1DBCE80E062CF82E061
:100B90008BCF5090640131E053123DC080915701DA
:100BA000882309F4B5CF1092570180915301909199
:100BB00054010E94300220915601211110C0509220
:100BC0005B015092580110925A01109252011092FA
:100BD000510180E00E945F031092640199CF813A35
:100BE0004FE0940728F05092580110925B01EBCF30
:100BF0001092580110925B0110925A019093630178
:100C00008093620110925F0110925E010E940B02BC
:100C1000409264017DCF80916401823079F58091AA
:100C20005501882329F01092520110935101D1CF20
:100C3000013009F06DCF8FEF92E527E081509040B1
:100C40002040E1F700C000001092580110925501B9
:100C500010925701109256011092540110925301B4
:100C600010925B0110925A0180E00E945F030E9483
:100C700029020E94D001309264014ACF8091640120
:100C8000833009F045CF80915701882309F440CF84
:100C9000109257010E9429028091530190915401B2
:100CA0000E94300220915601211105C010935B0172
:100CB0001093580188CF813A3FE0930718F01093C2
:100CC000580193CF1092580110925B0110925A0173
:100CD000909361018093600180915E0190915F012A
:100CE000892B09F4A0CF209160013091610180919E
:100CF000620190916301E0915E01F0915F0150E02B
:100D000040E0281B390B41095109AAE0B0E00E94DC
:100D100085079F0150E040E00E94570730935D0136
:100D200020935C01109352011092510110925B01CB
:100D300010925A0180915C0190915D010E940A0419
:100D40000E945900882311F081E044CF82E042CF15
:100D50008EE391E00E94A80113CF8091510181118F
:100D600048CE60E00E945D01809162019091630134
:100D70000E94720080E20E94960180916001909131
:100D800061010E94720080E20E94960180915E01E2
:100D900090915F01B3010E940D079F938F937F9302
:100DA0006F939F928F921F922F92FF92EF920E94C9
:100DB0009007C7010E94A80160E081E00E945D01E8
:100DC000809152010FB6F894DEBF0FBECDBF8823CD
:100DD000E1F080915C0190915D010E94D00080E281
:100DE0000E949601809100010E94A7006AE081E0C4
:100DF0000E945D0180915001882351F080916E0125
:100E000090916F010E94D000F4CD90E080E0E5CF9A
:100E10008EE391E00E94A801ECCDAA1BBB1B51E11F
:100E200007C0AA1FBB1FA617B70710F0A61BB70B5A
:100E3000881F991F5A95A9F780959095BC01CD01FF
:100E4000089597FB072E16F4009407D077FD09D07C
:100E50000E940D0707FC05D03EF4909581959F4FA9
:100E60000895709561957F4F0895A1E21A2EAA1BEF
:100E7000BB1BFD010DC0AA1FBB1FEE1FFF1FA2174A
:100E8000B307E407F50720F0A21BB30BE40BF50B47
:100E9000661F771F881F991F1A9469F760957095D0
:100EA000809590959B01AC01BD01CF010895052E61
:100EB00097FB1EF400940E946E0757FD07D00E9416
:100EC000350707FC03D04EF40C946E0750954095FF
:100ED000309521953F4F4F4F5F4F089590958095E6
:100EE000709561957F4F8F4F9F4F0895A29FB001DE
:100EF000B39FC001A39F700D811D1124911DB29F4E
:100F0000700D811D1124911D08950E947607A59FE3
:100F1000900DB49F900DA49F800D911D11240895F4
:100F2000AEE0B0E0E6E9F7E00C947A0D0D891E8999
:100F30008F89988D26E02C831A83098397FF02C03E
:100F400080E090E801979E838D83AE01455E5F4F00
:100F5000698D7A8DCE0101960E94D9074D815E81FF
:100F600057FD0AC02F813885421753070CF49A01A8
:100F7000020F131FF80110822E96E4E00C94960DD8
:100F8000AEE0B0E0E6ECF7E00C947C0D85E08C83FD
:100F90008B899C899A838983AE01495E5F4F6D89F5
:100FA0007E89CE0101960E943E0B2E96E2E00C94C3
:100FB000980DABE0B0E0EFEDF7E00C946C0D7C0128
:100FC0003B018A01FC0117821682838181FFC8C11F
:100FD000CE0101965C01F7019381F30193FD8591A8
:100FE00093FF81913F01882309F453C1853239F47D
:100FF00093FD859193FF81913F01853229F4B701DB
:1010000090E00E94A90CE7CF912C212C312CFFE11C
:10101000F31538F08B3211F190F4803209F18332FC
:1010200029F137FC3CC020ED280F2A3050F536FE60
:1010300020C08AE0989E200D1124922E06C08D3289
:1010400091F0803371F7689430F8F30193FD859146
:1010500093FF81913F018111DACF21C0689431F86B
:10106000689432F8F2CF689433F8EFCF689434F88C
:10107000ECCFEAE02E9E200D1124222E689435F844
:10108000E4CF8E3229F436FC04C1689436F8DDCF03
:101090008C3619F4689437F8D8CF8836B1F2982F87
:1010A0009F7D95549330E0F08336A1F18337C1F1F1
:1010B000833509F063C02801F2E04F0E511CF8019E
:1010C000C080D180692D70E036FC02C06FEF7FEFE9
:1010D000C6010E94570C4C01689437F882010AC07F
:1010E0000C5F1F4FFFE3F98388248394912C6501E3
:1010F000E89437F833FE2DC0522C8114910471F519
:10110000552009F468CFB70180E290E00E94A90C55
:101110005A94F6CFF801808189830E5F1F4FE4CF88
:101120002801F2E04F0E511CF801C080D180692DDA
:1011300070E036FC02C06FEF7FEFC6010E94620CC8
:101140004C018201D5CFB70180E290E00E94A90C4A
:101150002A942814190409F0B0F7CECFF60137FC11
:10116000859137FE81916F01B70190E00E94A90C33
:1011700051105A94F1E08F1A9108BFCF843619F0BC
:10118000893609F077C0F80137FE6BC06081718144
:10119000828193810C5F1F4FF32DFF763F2E97FFC7
:1011A00009C090958095709561957F4F8F4F9F4FA7
:1011B000689437F82AE030E0A5010E94F10CC82EAF
:1011C000CA188C2C432C36FE0CC0E89440F8C91485
:1011D00040F434FE05C032FC03C0F32DFE7E4F2EDA
:1011E000892C44FE95C0FE01EC0DF11D80818033F9
:1011F00009F087C0242D297E422E842D8870582E18
:1012000043FC95C040FE8FC09C2C821418F42C0C1B
:10121000922C981844FE91C0B70180E390E00E94A0
:10122000A90C42FE09C088E790E041FE02C088E5B3
:1012300090E0B7010E94A90CC91408F48AC0CA94AE
:10124000D12C9FEFC91AD90ACA0CDB1CF601829176
:101250006F01B70190E00E94A90CAC14BD04B1F776
:101260004FCF60817181072E000C880B990B0E5FA8
:101270001F4F92CFD32CE894D4F82AE030E0853782
:1012800039F1232D297FD22E8F3601F148F488358C
:10129000A9F0F701868197812B96E2E10C94880DE5
:1012A000803749F08837A9F7D4FE02C06894D2F895
:1012B00020E130E00DC06894D4F8F6CF34FE03C0CE
:1012C000822F8660D82E20E132E002C028E030E094
:1012D000F801D7FE0FC060817181828193810C5F1C
:1012E0001F4FA5010E94F10CC82ECA183D2CE8948E
:1012F00037F867CF6081718190E080E00E5F1F4F0B
:10130000F0CF42FC02C0839478CF8394839475CF4E
:10131000842D867809F471CFF6CFB70180E290E092
:101320000E94A90C83948214C0F3512C73CF522CC9
:101330005818821408F46ECFF8CF842D867809F4FB
:101340007BCF8BE241FE80E247FC8DE2B70190E06B
:1013500071CFB70180E390E00E94A90C9A946CCF02
:101360008FEF9FEF99CF20FD09C0FC0123FD05C041
:1013700022FF02C07383628351834083089544FD3A
:1013800017C046FD1DC0DB01FC01AA0FBB1FEE1FED
:10139000FF1F1094D1F76A0F7B1F8E1F9F1F660FD0
:1013A000771F881F991F620F711D811D911D089560
:1013B00033E0660F771F881F991F3150D1F7F3CFA5
:1013C00034E0F7CF0F931F93CF93DF938C01C801C5
:1013D0000E946D0CEC0197FD08C00E94430C892B04
:1013E000B1F7B801CE010E94D90CCE01DF91CF91A7
:1013F0001F910F9108958F929F92AF92BF92EF929B
:10140000FF920F931F93CF93DF938C01D62F7A0116
:10141000B22E0E946D0C9C0133272B32310529F02E
:101420002D323105A9F46894B7F8D15061F480E009
:10143000DF91CF911F910F91FF90EF90BF90AF90F0
:101440009F908F900895C8010E946D0C97FDEFCF7B
:10145000CB2DCD7F2B2D2073F9F48033E9F4AA2412
:10146000AA94AD0E89F0C8010E946D0C97FD0CC0C6
:10147000282F2F7D283561F4C264D25029F0C8018D
:101480000E946D0C97FF08C0812C912C54011BC049
:10149000B6FE2BC0C260DA2D812C912C540120EDB8
:1014A000280F283028F1C4FD09C02A3008F1C6FFF2
:1014B00005C02F7D3FEE320F3630C8F0B8010E94D4
:1014C000D90CC1FFB4CFC7FF08C0B094A0949094CA
:1014D0008094811C911CA11CB11C2C2FB501A4016E
:1014E000C7010E94B30981E0A3CFC261D4CF2750C6
:1014F0004C2FC501B4010E94BF094B015C01C260C1
:10150000D15009F3C8010E946D0C97FFC8CFD9CF05
:10151000A0E2B0E0EEE8FAE00C94710D5C01962ECA
:101520007A01CE0101966C0180E2F60111928A9552
:10153000E9F7F501B381890130E020E0712C812CBD
:10154000A0E041E050E0F801B3FD8591B3FF819147
:10155000982F8F01811107C010E000E0C801A0960C
:10156000EDE00C948D0D8E3519F42115310541F106
:10157000A21713064CF48D3549F18D3229F48110F0
:1015800006C0882483941DC0882009F464C0E92F14
:10159000E695E695E695EC0DFD2DF11D892F8770FA
:1015A000BA0101C0660F8A95EAF78081682B6083D3
:1015B000791651F0971510F49F5FE9CF9150E7CF5E
:1015C000A1E02F5F3F4FBFCF812CFBCF882019F0C8
:1015D0008E8180628E83AA2359F0F6019E012F5DD1
:1015E0003F4F8081809580833196E217F307C9F7DA
:1015F00088248394C5010E946D0C97FD16C0E82FC6
:10160000E695E695E695EC0DFD2DF11D208130E087
:10161000AC014770552702C0359527954A95E2F7EA
:1016200020FD06C0B5010E94D90C882069F094CF36
:10163000E114F10429F0F7018083C70101967C01D0
:101640009A94812C9110D6CFE114F10409F486CF3D
:10165000F701108283CFE82FE695E695E695EC0D2D
:10166000FD2DF11D982F9770BA0101C0660F9A9554
:10167000EAF79081692B6083782EA3CFB0E0A0E0D9
:10168000E4E4FBE00C946F0D6C01EB015A01FC01EA
:1016900017821682512CF601E380FE01E3FC85914E
:1016A000E3FE8191182FEF018823E9F090E00E947A
:1016B000430C892B21F0C6010E94E209ECCF1532C0
:1016C00041F4FE01E3FC1591E3FE1191EF011532A7
:1016D00069F4C6010E946D0C97FD8EC01817D9F2EF
:1016E000B6010E94D90C852D90E08AC000E01A3224
:1016F00031F4E3FC1591E3FE1191EF0101E0F12CCF
:1017000020ED210F2A3048F101FF37C0FF2059F3A7
:101710001836B1F11C3609F43DC0112321F3612FB5
:1017200070E088E690E00E944C0C892BE1F2912C4D
:10173000812C00FD06C0F50180809180C5010296D4
:101740005C011E3679F5F6014681578170E060E054
:10175000202FC4010E94B3099ECF02606F2D70E05C
:1017600090E080E040E20E94BF09F62EFE01E3FC1B
:101770001591E3FE1191EF01C3CFFF24FA94C8CF76
:10178000FE01E3FC1591E3FE1191EF01183609F01B
:10179000C4CF08600460FE01E3FC1591E3FE1191E3
:1017A000EF01BBCF1336C1F401FD02C0FF24F39457
:1017B000C6010E946D0C97FD1FC08114910429F091
:1017C000F4018083C40101964C01FA94F110F0CF2A
:1017D00000FD61CF53945FCF1B35B9F49E01A40186
:1017E0006F2DC6010E94880AEC01892B89F7F6014A
:1017F0008381807309F477CF8FEF9FEF511073CF00
:10180000CDB7DEB7EFE00C948B0DC6010E94E20964
:1018100097FDF2CF1F36A9F130F4143641F0193696
:1018200039F0006405C01337B9F01537D1F70062FD
:10183000202FA4016F2DC6010E94FB098111C8CF82
:10184000D6CF8114910429F0F4016082C40101967D
:101850004C01FA94FF2071F0C6010E946D0C3C010E
:1018600097FD08C00E94430C892B59F3B601C301B0
:101870000E94D90C8114910409F4AACFF4011082BA
:10188000A7CF0061D5CF91110C944F0D803219F084
:1018900089508550C8F70895FC010590061621F07F
:1018A0000020D9F7C00108953197CF010895FC01B8
:1018B0000590615070400110D8F7809590958E0F7B
:1018C0009F1F0895FC016150704001900110D8F7EE
:1018D000809590958E0F9F1F0895CF93DF93EC0115
:1018E0002B8120FF1AC026FF0CC02F7B2B838E81FB
:1018F0009F8101969F838E838A8190E0DF91CF91B3
:10190000089522FF18C0E881F9818081082E000C1B
:10191000990B009729F420622B838FEF9FEFEECF76
:101920003196F983E8832E813F812F5F3F4F3F83BC
:101930002E839927E3CFEA85FB85099597FFF3CF9F
:101940002B81019621F080E2822B8B83E6CF80E110
:10195000FBCF0F931F93CF93DF93182F092FEB012A
:101960008B8181FD09C01FEF0FEF812F902FDF9139
:10197000CF911F910F91089582FF14C02E813F8156
:101980008C819D81281739073CF4E881F981CF01CA
:1019900001969983888310838E819F8101969F830E
:1019A0008E83E3CFE885F985812F0995892BA1F3F3
:1019B000DACFFB01238120FF11C026FD0FC08F3F2E
:1019C000980771F082832F7D2064238326813781DD
:1019D0002150310937832683992708958FEF9FEF90
:1019E0000895FA01AA27283051F1203181F1E894B5
:1019F0006F936E7F6E5F7F4F8F4F9F4FAF4FB1E002
:101A00003ED0B4E03CD0670F781F891F9A1FA11DFC
:101A1000680F791F8A1F911DA11D6A0F711D811DFD
:101A2000911DA11D20D009F468943F912AE0269FC2
:101A300011243019305D3193DEF6CF010895462F21
:101A40004770405D4193B3E00FD0C9F7F6CF462F02
:101A50004F70405D4A3318F0495D31FD405241936B
:101A600002D0A9F7EACFB4E0A69597958795779528
:101A70006795BA95C9F700976105710508959B01AF
:101A8000AC010A2E06945795479537952795BA9538
:101A9000C9F7620F731F841F951FA01D0895992712
:101AA00088270895F999FECF92BD81BDF89A9927AC
:101AB00080B50895262FF999FECF92BD81BDF89A81
:101AC000019700B4021639F01FBA20BD0FB6F89482
:101AD000FA9AF99A0FBE08952F923F924F925F9211
:101AE0006F927F928F929F92AF92BF92CF92DF922E
:101AF000EF92FF920F931F93CF93DF93CDB7DEB793
:101B0000CA1BDB0B0FB6F894DEBF0FBECDBF099426
:101B10002A88398848885F846E847D848C849B847D
:101B2000AA84B984C884DF80EE80FD800C811B818B
:101B3000AA81B981CE0FD11D0FB6F894DEBF0FBEBA
:0A1B4000CDBFED010895F894FFCF2A
:101B4A0014253275002D2533752E25317500202573
:101B5A0033752E253175004B6169746C796E204F8F
:101B6A006F690053706565646F6D657465720025F1
:101B7A0064003E34303020202020202020202020E5
:101B8A002020002532752E25317500402564240059
:00000001FF
