:100000000C9434000C9449000C9449000C94490061
:100010000C9449000C9449000C9449000C9449003C
:100020000C9449000C9449000C9449000C9449002C
:100030000C9449000C9449000C9449000C9449001C
:100040000C9449000C9449000C9449000C9449000C
:100050000C9449000C9449000C9449000C944900FC
:100060000C9449000C94490011241FBECFEFD8E036
:10007000DEBFCDBF11E0A0E0B1E0E0E0F4E002C0FF
:1000800005900D92A233B107D9F70E940A010C9492
:10009000FE010C940000882321F0439A459A45986C
:1000A00008954398FBCF1F93CF93DF93C82FD62F8C
:1000B000142F822F0E944B00812F0E944B008D2F06
:1000C0000E944B00C1FB882780F90E944B008C2FB7
:1000D0008170DF91CF911F910C944B00E0EBF0E029
:1000E000808183608083808180688083E1EBF0E0A1
:1000F0008081846080831092B30008959BB19F70CB
:10010000807F982B9BB9299A299A29980895CF9393
:10011000C82F28980E947E008C2F8295807F0E9495
:100120007E008FE39FE10197F1F700C00000CF91BF
:100130000895811104C080E8860F0C94870080EC3C
:10014000FBCF84B1836084B922988AB1806F8AB969
:100150008FE59AEE0197F1F700C0000080E30E945E
:100160007E008FE19EE40197F1F700C0000080E37C
:100170000E947E008FED91E00197F1F700C0000032
:1001800080E30E947E0080E20E947E008FE39FE178
:100190000197F1F700C0000088E20E9487008FE01D
:1001A0000C948700CF93C82F289A0E947E008C2F32
:1001B0008295807F0E947E008FE39FE10197F1F797
:1001C00000C00000CF910895CF93DF93EC01899197
:1001D000811103C0DF91CF9108950E94D200F7CF23
:1001E00080E680937C0087E880937A000895909160
:1001F0007C00907F8F70982B90937C0080917A0088
:10020000806480937A0080917A0086FDFCCF809193
:1002100079000895CF93DF9300D01F92CDB7DEB75A
:100220000E94A1000E94F000239A87B1886287B9DA
:100230000E946E0081E00E9487008FE39FE101979A
:10024000F1F700C0000060E080E00E94990080E0CB
:1002500091E00E94E40060E081E00E9499008CE05F
:1002600091E00E94E4009FEFE7EAF1E69150E04060
:10027000F040E1F700C0000060E080E00E949900DB
:1002800081E00E9487008FE39FE10197F1F700C0B2
:10029000000082E191E00E94E40060E081E00E94C1
:1002A000990089E191E00E94E40081E08B838A83D8
:1002B0008983FF24F39410E06E0194E0C90ED11CF1
:1002C00081E00E94F7008093B30080E00E94F70075
:1002D00080E00E94F700082F89E7800F043108F0C2
:1002E00052C0123008F04FC0F12EFF0CF10E67E043
:1002F0006F0D81E00E94990080E20E94D2001F5F92
:100300006AE06F0D81E00E9499008EE30E94D200A6
:10031000EFEFF3EC29E0E150F0402040E1F700C0BE
:100320000000FF24F39481EE800F873208F04CC068
:10033000E1E0F0E0EC0FFD1FE10FF11D1082FFEF97
:1003400023EC89E0F15020408040E1F700C000003C
:1003500068E080E00E949900CE0101967C01F701DF
:1003600081917F01882309F446C089E291E00E94CF
:10037000E400CE14DF0499F72B814A816981812F33
:100380000E94530036C0873270F6112361F2612F4C
:10039000660F610F695F81E00E94990080E20E9410
:1003A000D2001150612F660F610F695F81E00E94DA
:1003B00099008EE30E94D2008FEF93ECE9E0815028
:1003C0009040E040E1F7ABCF0155073280F481E087
:1003D000E1E0F0E0EC0FFD1FE10FF11D80839FEFE6
:1003E000E3ECF9E09150E040F040E1F7AFCFF110DD
:1003F000AFCFF12C65CF8DE291E0B9CFF894FFCF6C
:100400004B6169746C796E204F6F69004C6162209A
:1004100038004C6576656C3A00436F6C6F723A2019
:100420003E5220204720204200502020002A202039
:020430000000CA
:00000001FF
