:100000000C9434000C9449000C9449000C94490061
:100010000C9449000C9449000C9449000C9449003C
:100020000C9449000C9449000C9449000C9449002C
:100030000C9449000C9449000C9449000C9449001C
:100040000C9449000C9449000C9449000C9449000C
:100050000C9449000C9449000C9449000C944900FC
:100060000C9449000C94490011241FBECFEFD8E036
:10007000DEBFCDBF11E0A0E0B1E0E0E8F2E002C0F9
:1000800005900D92AA33B107D9F70E94E0000C94B5
:100090003E010C940000882321F0439A459A45982C
:1000A00008954398FBCF1F93CF93DF93C82FD62F8C
:1000B000142F822F0E944B00812F0E944B008D2F06
:1000C0000E944B008C2F82700E944B008C2F8170FD
:1000D000DF91CF911F910C944B009BB19F709BB906
:1000E0009BB1807F892B8BB9299A299A29980895E9
:1000F000CF93C82F28980E946D008C2F8295807F07
:100100000E946D008FE39FE10197F1F700C00000AE
:10011000CF910895811104C080E8860F0C94780077
:1001200080ECFBCF8AB1806F8AB984B1836084B9D7
:100130008FE59AEE0197F1F700C0000080E30E947E
:100140006D008FE19EE40197F1F700C0000080E3AD
:100150000E946D008FED91E00197F1F700C0000063
:1001600080E30E946D0080E20E946D008FE39FE1BA
:100170000197F1F700C0000088E20E9478008FE04C
:100180000C947800CF93C82F289A0E946D008C2F72
:100190008295807F0E946D008FE39FE10197F1F7C8
:1001A00000C00000CF910895CF93DF93EC018991B7
:1001B000811103C0DF91CF9108950E94C200F7CF53
:1001C0000E94920087B1886287B9239A81E00E94D9
:1001D000780062E080E00E948A0080E091E00E9466
:1001E000D40062E081E00E948A008CE091E00E94ED
:1001F000D4002FEF83ED90E3215080409040E1F751
:1002000000C0000081E00E94780060E080E00E9471
:100210008A0089E191E00E94D40060E081E00E94C0
:100220008A0089E291E00E94D400D7E0C0E082E039
:10023000682F660F680F695F81E00E948A0080E284
:100240000E94C2006D2F81E00E948A008EE30E940E
:10025000C20021E041E061E08C2F0E9453002FEFAB
:100260008EE994E2215080409040E1F700C0000008
:10027000DD5F8C2FCF5FC330D9F6D7CFF894FFCF97
:100280004545313039204C61622038005465737423
:100290002050726F6772616D004C6576656C3A2014
:1002A000202A20202A20202A00436F6C6F723A20D7
:0A02B0003E522020472020420000AB
:00000001FF
