:100000000C9434000C943E000C943E000C943E0082
:100010000C943E000C943E000C943E000C943E0068
:100020000C943E000C943E000C943E000C943E0058
:100030000C943E000C943E000C943E000C943E0048
:100040000C943E000C943E000C943E000C943E0038
:100050000C943E000C943E000C943E000C943E0028
:100060000C943E000C943E0011241FBECFEFD8E04C
:10007000DEBFCDBF0E94B2000C94C0000C94000003
:100080009BB19F70807F982B9BB9299A299A2998B8
:100090000895CF93C82F28980E9440008C2F8295F6
:1000A000807F0E9440008FE39FE10197F1F700C03D
:1000B0000000CF910895811104C080E8860F0C9450
:1000C000490080ECFBCF84B1836084B922988AB167
:1000D000806F8AB98FE59AEE0197F1F700C00000B2
:1000E00080E30E9440008FE19EE40197F1F700C099
:1000F000000080E30E9440008FED91E00197F1F74E
:1001000000C0000080E30E94400080E20E944000A6
:100110008FE39FE10197F1F700C0000088E20E94A1
:1001200049008FE00C944900CF93C82F289A0E9471
:1001300040008C2F8295807F0E9440008FE39FE1DA
:100140000197F1F700C00000CF910895CF93DF939E
:10015000EC018991811103C0DF91CF9108950E9434
:100160009400F7CF0E946300259AD0E2CDE781E4A6
:100170000E949400C150D9F785B18D2785B9F6CF7B
:04018000F894FFCF21
:00000001FF
