:100000000C9434000C9449000C9449000C94490061
:100010000C9449000C9449000C9449000C9449003C
:100020000C9449000C9449000C9449000C9449002C
:100030000C9449000C9449000C9449000C9449001C
:100040000C9449000C9449000C9449000C9449000C
:100050000C9449000C9449000C9449000C944900FC
:100060000C9449000C94490011241FBECFEFD8E036
:10007000DEBFCDBF11E0A0E0B1E0E2E4F2E002C0FB
:1000800005900D92A832B107D9F70E94CB000C94CD
:100090001F010C94000032990AC08FE19EE4019781
:1000A000F1F700C00000329BFECF81E0089580E0B0
:1000B00008959BB19F70807F982B9BB9299A299AAC
:1000C00029980895CF93C82F28980E9459008C2F03
:1000D0008295807F0E9459008FE39FE10197F1F79D
:1000E00000C00000CF910895811104C080E8860F00
:1000F0000C94620080ECFBCF84B1836084B92298B9
:100100008AB1806F8AB98FE59AEE0197F1F700C046
:10011000000080E30E9459008FE19EE40197F1F70F
:1001200000C0000080E30E9459008FED91E001972C
:10013000F1F700C0000080E30E94590080E20E94B5
:1001400059008FE39FE10197F1F700C0000088E2BA
:100150000E9462008FE00C946200CF93C82F289A0F
:100160000E9459008C2F8295807F0E9459008FE356
:100170009FE10197F1F700C00000CF910895CF9360
:10018000DF93EC018991811103C0DF91CF91089534
:100190000E94AD00F7CF429A0E947C0081E00E944D
:1001A0006200C0E0D1E08991882309F440C00E9438
:1001B000AD0021E0C031D207B1F7D0E0C0E0FF24AC
:1001C000F394DD24D394D0FD04C00E944B00811130
:1001D000FD248D2F8370E9F481E0F8122AC0EC2F02
:1001E000F0E0E050FF4F80898111CF5F80E80E94EE
:1001F00062000C2F10E000501F4F80E1E82EF80144
:1002000081918F018823C9F00E94AD00EA94E1102A
:10021000F6CFD43109F4D0E0DF5FFFEF20E782E0D2
:10022000F15020408040E1F700C00000CCCF80E2D8
:10023000BECFCC23D9F2C150D9CF80E2E5CFF8941C
:02024000FFCFEE
:10024200546869732069732061207363726F6C6CE8
:10025200696E67206D65737361676520666F7220D2
:08026200313039206C616200AB
:00000001FF
