:100000000C9434000C9451000C9451000C94510049
:100010000C9451000C9451000C9451000C9451001C
:100020000C9451000C9451000C9451000C948A00D3
:100030000C9451000C9451000C9451000C945100FC
:100040000C9451000C9451000C9451000C945100EC
:100050000C9451000C9451000C9451000C945100DC
:100060000C9451000C94510011241FBECFEFD8E026
:10007000DEBFCDBF11E0A0E0B1E0EEEAF3E002C0E8
:1000800005900D92A032B107D9F721E0A0E2B1E0CE
:1000900001C01D92A432B207E1F70E9430010C9416
:1000A000D5010C940000E1E8F0E080818860808355
:1000B000EFE6F0E08081826080838AE698E19093A9
:1000C0008900809388000895E1E8F0E080818460F1
:1000D00080830895E1E8F0E080818B7F808308953C
:1000E000EFE1FEE43197F1F700C0000021E030E0DD
:1000F00002C0220F331F8A95E2F786B190E0822377
:100100009323892BD1F38FE19EE40197F1F700C08F
:10011000000008951F920F920FB60F9211248F9333
:10012000809123018F5F80932301809123018A3086
:10013000E1F410922301809120018F5F80932001D0
:10014000809120018A3089F410922001809122014F
:100150008F5F8093220180912201863031F41092CA
:100160002301109220011092220181E0809321014D
:100170008F910F900FBE0F901F9018959BB19F709D
:10018000807F982B9BB9299A299A29980895CF9313
:10019000C82F28980E94BE008C2F8295807F0E94D5
:1001A000BE008FE39FE10197F1F700C00000CF91FF
:1001B0000895811104C080E8860F0C94C70080EC7C
:1001C000FBCF84B1836084B922988AB1806F8AB9E9
:1001D0008FE59AEE0197F1F700C0000080E30E94DE
:1001E000BE008FE19EE40197F1F700C0000080E3BC
:1001F0000E94BE008FED91E00197F1F700C0000072
:1002000080E30E94BE0080E20E94BE008FE39FE177
:100210000197F1F700C0000088E20E94C7008FE05C
:100220000C94C700CF93C82F289A0E94BE008C2F31
:100230008295807F0E94BE008FE39FE10197F1F7D6
:1002400000C00000CF910895CF93DF93EC01899116
:10025000811103C0DF91CF9108950E941201F7CF61
:100260000E94E1000E94530088B1846188B90E9415
:10027000E10060E080E00E94D90080E091E00E940F
:10028000240160E081E00E94D9008CE091E00E94AE
:1002900024012FEF83ED90E3215080409040E1F75F
:1002A00000C0000081E00E94C70060E080E00E9482
:1002B000D9008BE191E00E9424017894C0E096B1CE
:1002C000947086B18071C1113FC0911104C00E9429
:1002D0006400C4E013C0811111C010928500109217
:1002E000840010922301109220011092220160E0FC
:1002F0000E94D9008BE191E00E94240180912101AC
:100300008823E9F2C13011F0C430C9F610922101FE
:1003100060E080E00E94D90080912201882309F4E6
:1003200042C080912201805D0E94120180912001D3
:10033000805D0E9412018EE20E94120180912301D1
:10034000805D0E941201BBCFC13051F4911104C0F5
:100350000E946A00C3E0D2CF8111D0CFC5E0CECFDA
:10036000C23039F4992309F4B4CF882309F4B1CF0A
:10037000C5CFC43059F4329B02C03499C1E08FE13B
:100380009EE40197F1F700C00000B8CFC33021F41C
:10039000329BF5CFC0E0F3CFC53009F0AFCF349B2F
:0E03A000EECFC2E0ECCF80E2BFCFF894FFCFEB
:1003AE004B6169746C796E204F6F69004C616220ED
:1003BE0035202D2054696D6572730020302E30006B
:00000001FF
