:100000000C9434000C9446000C9446000C9446006A
:100010000C9446000C9446000C9446000C94460048
:100020000C9446000C9446000C9446000C947F00FF
:100030000C9446000C9446000C9446000C94460028
:100040000C9446000C9446000C9446000C94460018
:100050000C9446000C9446000C9446000C94460008
:100060000C9446000C94460011241FBECFEFD8E03C
:10007000DEBFCDBF21E0A0E0B1E001C01D92A43001
:10008000B207E1F70E9403010C940C010C940000EC
:10009000E1E8F0E0808188608083EFE6F0E0808135
:1000A000826080838AE698E190938900809388003B
:1000B0000895E1E8F0E08081846080830895E1E8BC
:1000C000F0E080818B7F80830895EFE1FEE431973B
:1000D000F1F700C0000021E030E002C0220F331F22
:1000E0008A95E2F786B190E082239323892BD1F39E
:1000F0008FE19EE40197F1F700C0000008951F9280
:100100000F920FB60F9211248F939F9388B190E2B4
:10011000892788B99F918F910F900FBE0F901F90E4
:1001200018959BB19F70807F982B9BB9299A299A2B
:1001300029980895CF93C82F28980E9491008C2F5A
:100140008295807F0E9491008FE39FE10197F1F7F4
:1001500000C00000CF910895811104C080E8860F8F
:100160000C949A0080ECFBCF84B1836084B9229810
:100170008AB1806F8AB98FE59AEE0197F1F700C0D6
:10018000000080E30E9491008FE19EE40197F1F767
:1001900000C0000080E30E9491008FED91E0019784
:1001A000F1F700C0000080E30E94910080E20E940D
:1001B00091008FE39FE10197F1F700C0000088E212
:1001C0000E949A008FE00C949A00CF93C82F289A2F
:1001D0000E9491008C2F8295807F0E9491008FE376
:1001E0009FE10197F1F700C00000CF910895CF93F0
:1001F000DF93EC018991811103C0DF91CF910895C4
:100200000E94E500F7CF0E94B4000E9448003D9A8A
:0C0210000E9459007894FFCFF894FFCFB3
:00000001FF
