:100000000C9434000C9451000C9451000C94510049
:100010000C94C7000C9451000C9451000C945100A6
:100020000C9451000C9451000C9451000C949B00C2
:100030000C9451000C9451000C9451000C945100FC
:100040000C9451000C9451000C9451000C945100EC
:100050000C9451000C9451000C9451000C945100DC
:100060000C9451000C94510011241FBECFEFD8E026
:10007000DEBFCDBF11E0A0E0B1E0EEEEFBE002C0DC
:1000800005900D92A232B107D9F721E0A2E2B1E0CA
:1000900001C01D92A832B207E1F70E94AA010C9498
:1000A000F5050C940000CF92DF92EF92FF92209121
:1000B00025012130E1F39B0150E040E0220F331F86
:1000C000441F551F6C01F12CE12CC701B6010E94A1
:1000D0009E0228EE33E040E050E00E94AE023093F2
:1000E000270120932601109285001092840060E081
:1000F00072E18AE790E0A70196010E94D0022150A8
:1001000031093093890020938800809181008160BB
:100110008093810081E080932501FF90EF90DF9034
:10012000CF9008951092800088E08093810082E053
:1001300080936F0008951F920F920FB60F921124B3
:100140008F939F938091260190912701892B89F0AD
:1001500080E183B9809126019091270101979093C6
:100160002701809326018091260190912701892BF8
:1001700039F480918100887F80938100109225015D
:100180009F918F910F900FBE0F901F9018951F9207
:100190000F920FB60F9211242F933F938F939F933B
:1001A00086B1982F927085FD19C081E0911101C030
:1001B00080E0909122019817C9F19091220191114C
:1001C0001BC0813081F420910001309101012F5F2B
:1001D0003F4F309301012093000116C083E091113D
:1001E000E8CF82E0E6CF823079F4209100013091AF
:1001F000010121503109EDCF909122019130F9F4A4
:10020000882399F38330F9F22091000130910101A4
:10021000213531051CF120E530E0309301012093B8
:1002200000018093220181E0809324019F918F91AE
:100230003F912F910F900FBE0F901F9018959091A6
:100240002201923029F4833081F28111DDCFBBCFBE
:10025000823009F4B8CF8130B9F6C7CF20910001C0
:10026000309101012A303105E4F62AE030E0D5CFA3
:100270009BB19F70807F982B9BB9299A299A2998C6
:100280000895CF93C82F28980E9438018C2F82950B
:10029000807F0E9438018FE39FE10197F1F700C052
:1002A0000000CF910895811104C080E8860F0C945E
:1002B000410180ECFBCF84B1836084B922988AB17C
:1002C000806F8AB98FE59AEE0197F1F700C00000C0
:1002D00080E30E9438018FE19EE40197F1F700C0AE
:1002E000000080E30E9438018FED91E00197F1F763
:1002F00000C0000080E30E94380180E20E943801C3
:100300008FE39FE10197F1F700C0000088E20E94AF
:1003100041018FE00C944101CF93C82F289A0E948D
:1003200038018C2F8295807F0E9438018FE39FE1F6
:100330000197F1F700C00000CF910895CF93DF93AC
:10034000EC018991811103C0DF91CF9108950E9442
:100350008C01F7CFCF93DF93CDB7DEB7C755D10967
:100360000FB6F894DEBF0FBECDBF88B1826288B9E8
:10037000249A5A9A0E9492000E945B0160E080E0F9
:100380000E94530182E091E00E949E0187E08F93DA
:1003900085ED8F931F9284E08F931F928AE08F9355
:1003A0008EE091E09F938F931F9281E18F938E0156
:1003B000095B1F4F1F930F930E941003F8010190D8
:1003C0000020E9F7B8016E1B7F0B6F5E7F4F0FB601
:1003D000F894DEBF0FBECDBF77FF02C06F5F7F4FC7
:1003E0007595679577FD60E081E00E945301C80133
:1003F0000E949E019FEFE3EDF0E39150E040F0405A
:10040000E1F700C0000081E00E944101FE01319649
:1004100080E991E081939193C296823726E092071A
:10042000C9F796B1892F827095FD74C081116EC095
:100430001092220180916800826080936800809110
:100440006C00826280936C0078948DE1282E81E0AC
:10045000382E8E010D5C1F4F90E5892E912C29E1DD
:10046000422E512C612C712CAA24A394B12CAC0ED9
:10047000BD1E82E3A80EB11C80912401882349F19E
:100480001092240180910001909101018135910524
:100490000CF446C09092010180920001809100010D
:1004A000909101019F938F933F922F921F92F5E0BD
:1004B000FF931F930F930E94100360E081E00E945E
:1004C0005301C8010E949E010FB6F894DEBF0FBE13
:1004D000CDBF4A99D1CFA0910001B091010124E68E
:1004E00030E00E94EF02A30192010E94AE02690176
:1004F000FE0131967F01B601F701819191917F0153
:100500000E945300AE14BF04B1F7B6CF81E08093D0
:10051000220190CF811102C082E0F9CF83E0F7CFB2
:1005200080910001909101010A970CF0B7CFEAE0A9
:10053000F0E0F0930101E0930001B0CFDB018F9375
:100540009F930E94F602BF91AF91A29F800D911DD3
:10055000A39F900DB29F900D11240895A1E21A2E31
:10056000AA1BBB1BFD010DC0AA1FBB1FEE1FFF1F57
:10057000A217B307E407F50720F0A21BB30BE40BA7
:10058000F50B661F771F881F991F1A9469F76095EE
:100590007095809590959B01AC01BD01CF010895A8
:1005A000052E97FB1EF400940E94E70257FD07D02A
:1005B0000E94AE0207FC03D04EF40C94E702509563
:1005C0004095309521953F4F4F4F5F4F089590953F
:1005D0008095709561957F4F8F4F9F4F08950E9432
:1005E0000103B7FF0895821B930B08950E94010336
:1005F000A59F900DB49F900DA49F800D911D112477
:100600000895A29FB001B39FC001A39F700D811DEB
:100610001124911DB29F700D811D1124911D08950B
:10062000AEE0B0E0E6E1F3E00C94CC050D891E8964
:100630008F89988D26E02C831A83098397FF02C047
:1006400080E090E801979E838D83AE01455E5F4F09
:10065000698D7A8DCE0101960E9440034D815E81A5
:1006600057FD0AC02F813885421753070CF49A01B1
:10067000020F131FF80110822E96E4E00C94E80597
:10068000ABE0B0E0E6E4F3E00C94BE057C013B0196
:100690008A01FC0117821682838181FFC8C1CE01C5
:1006A00001965C01F7019381F30193FD859193FF1E
:1006B00081913F01882309F453C1853239F493FDB8
:1006C000859193FF81913F01853229F4B70190E034
:1006D0000E943005E7CF912C212C312CFFE1F3153E
:1006E00038F08B3211F190F4803209F1833229F124
:1006F00037FC3CC020ED280F2A3050F536FE20C0D4
:100700008AE0989E200D1124922E06C08D3291F021
:10071000803371F7689430F8F30193FD859193FF6E
:1007200081913F018111DACF21C0689431F868943A
:1007300032F8F2CF689433F8EFCF689434F8ECCF06
:10074000EAE02E9E200D1124222E689435F8E4CF85
:100750008E3229F436FC04C1689436F8DDCF8C362D
:1007600019F4689437F8D8CF8836B1F2982F9F7D66
:1007700095549330E0F08336A1F18337C1F183358E
:1007800009F063C02801F2E04F0E511CF801C0804F
:10079000D180692D70E036FC02C06FEF7FEFC6019B
:1007A0000E941A054C01689437F882010AC00C5F58
:1007B0001F4FFFE3F98388248394912C6501E8940B
:1007C00037F833FE2DC0522C8114910471F5552059
:1007D00009F468CFB70180E290E00E9430055A9496
:1007E000F6CFF801808189830E5F1F4FE4CF280187
:1007F000F2E04F0E511CF801C080D180692D70E0ED
:1008000036FC02C06FEF7FEFC6010E9425054C0148
:100810008201D5CFB70180E290E00E9430052A9492
:100820002814190409F0B0F7CECFF60137FC8591F2
:1008300037FE81916F01B70190E00E9430055110A1
:100840005A94F1E08F1A9108BFCF843619F0893697
:1008500009F077C0F80137FE6BC060817181828139
:1008600093810C5F1F4FF32DFF763F2E97FF09C03A
:1008700090958095709561957F4F8F4F9F4F6894AD
:1008800037F82AE030E0A5010E946005C82ECA189A
:100890008C2C432C36FE0CC0E89440F8C91440F46C
:1008A00034FE05C032FC03C0F32DFE7E4F2E892C92
:1008B00044FE95C0FE01EC0DF11D8081803309F0EE
:1008C00087C0242D297E422E842D8870582E43FC0B
:1008D00095C040FE8FC09C2C821418F42C0C922CD6
:1008E000981844FE91C0B70180E390E00E94300563
:1008F00042FE09C088E790E041FE02C088E590E032
:10090000B7010E943005C91408F48AC0CA94D12CDA
:100910009FEFC91AD90ACA0CDB1CF60182916F013C
:10092000B70190E00E943005AC14BD04B1F74FCF81
:1009300060817181072E000C880B990B0E5F1F4F91
:1009400092CFD32CE894D4F82AE030E0853739F1FF
:10095000232D297FD22E8F3601F148F48835A9F056
:10096000F701868197812B96E2E10C94DA058037B6
:1009700049F08837A9F7D4FE02C06894D2F820E184
:1009800030E00DC06894D4F8F6CF34FE03C0822F57
:100990008660D82E20E132E002C028E030E0F80185
:1009A000D7FE0FC060817181828193810C5F1F4FE0
:1009B000A5010E946005C82ECA183D2CE89437F89E
:1009C00067CF6081718190E080E00E5F1F4FF0CFB4
:1009D00042FC02C0839478CF8394839475CF842D96
:1009E000867809F471CFF6CFB70180E290E00E94DB
:1009F000300583948214C0F3512C73CF522C5818B5
:100A0000821408F46ECFF8CF842D867809F47BCF5A
:100A10008BE241FE80E247FC8DE2B70190E071CFAE
:100A2000B70180E390E00E9430059A946CCF8FEF7D
:100A30009FEF99CFFC010590615070400110D8F7ED
:100A4000809590958E0F9F1F0895FC016150704016
:100A500001900110D8F7809590958E0F9F1F0895F3
:100A60000F931F93CF93DF93182F092FEB018B81E7
:100A700081FD09C01FEF0FEF812F902FDF91CF91E4
:100A80001F910F91089582FF14C02E813F818C81A8
:100A90009D81281739073CF4E881F981CF0101963F
:100AA0009983888310838E819F8101969F838E8393
:100AB000E3CFE885F985812F0995892BA1F3DACF5A
:100AC000FA01AA27283051F1203181F1E8946F937F
:100AD0006E7F6E5F7F4F8F4F9F4FAF4FB1E03ED025
:100AE000B4E03CD0670F781F891F9A1FA11D680FC3
:100AF000791F8A1F911DA11D6A0F711D811D911DF6
:100B0000A11D20D009F468943F912AE0269F11246A
:100B10003019305D3193DEF6CF010895462F4770CE
:100B2000405D4193B3E00FD0C9F7F6CF462F4F7029
:100B3000405D4A3318F0495D31FD4052419302D087
:100B4000A9F7EACFB4E0A69597958795779567952D
:100B5000BA95C9F700976105710508959B01AC012D
:100B60000A2E06945795479537952795BA95C9F754
:100B7000620F731F841F951FA01D08952F923F922F
:100B80004F925F926F927F928F929F92AF92BF929D
:100B9000CF92DF92EF92FF920F931F93CF93DF9349
:100BA000CDB7DEB7CA1BDB0B0FB6F894DEBF0FBEA6
:100BB000CDBF09942A88398848885F846E847D84F3
:100BC0008C849B84AA84B984C884DF80EE80FD80F5
:100BD0000C811B81AA81B981CE0FD11D0FB6F8946B
:0E0BE000DEBF0FBECDBFED010895F894FFCF2C
:100BEE0014004B6169746C796E204F6F690025306B
:100BFE0032642F253032642F25303464002534645E
:020C0E000000E4
:00000001FF
